{
  "_format": "hh-sol-artifact-1",
  "contractName": "fundraisingPlatform",
  "sourceName": "contracts/fundraisingPlatform.sol",
  "abi": [
    {
      "inputs": [
        {
          "internalType": "uint256",
          "name": "_limitOfAgg",
          "type": "uint256"
        },
        {
          "internalType": "address",
          "name": "_beneficiary",
          "type": "address"
        }
      ],
      "stateMutability": "nonpayable",
      "type": "constructor"
    },
    {
      "inputs": [],
      "name": "agree",
      "outputs": [],
      "stateMutability": "nonpayable",
      "type": "function"
    },
    {
      "inputs": [],
      "name": "checkAggregateWallet",
      "outputs": [
        {
          "internalType": "uint256",
          "name": "",
          "type": "uint256"
        }
      ],
      "stateMutability": "view",
      "type": "function"
    },
    {
      "inputs": [],
      "name": "checkBeneficiaryWallet",
      "outputs": [
        {
          "internalType": "uint256",
          "name": "",
          "type": "uint256"
        }
      ],
      "stateMutability": "view",
      "type": "function"
    },
    {
      "inputs": [],
      "name": "checkProposal",
      "outputs": [
        {
          "internalType": "string",
          "name": "",
          "type": "string"
        },
        {
          "internalType": "uint256",
          "name": "",
          "type": "uint256"
        }
      ],
      "stateMutability": "view",
      "type": "function"
    },
    {
      "inputs": [],
      "name": "checkRc",
      "outputs": [
        {
          "internalType": "bool",
          "name": "",
          "type": "bool"
        }
      ],
      "stateMutability": "nonpayable",
      "type": "function"
    },
    {
      "inputs": [],
      "name": "checkRemittanceWallet",
      "outputs": [
        {
          "internalType": "uint256",
          "name": "",
          "type": "uint256"
        }
      ],
      "stateMutability": "view",
      "type": "function"
    },
    {
      "inputs": [],
      "name": "checkWin",
      "outputs": [
        {
          "internalType": "string",
          "name": "_winningProposal",
          "type": "string"
        }
      ],
      "stateMutability": "nonpayable",
      "type": "function"
    },
    {
      "inputs": [
        {
          "internalType": "uint256",
          "name": "amount",
          "type": "uint256"
        }
      ],
      "name": "donate",
      "outputs": [],
      "stateMutability": "nonpayable",
      "type": "function"
    },
    {
      "inputs": [],
      "name": "firstTransfer",
      "outputs": [
        {
          "internalType": "string",
          "name": "",
          "type": "string"
        }
      ],
      "stateMutability": "nonpayable",
      "type": "function"
    },
    {
      "inputs": [
        {
          "internalType": "address",
          "name": "donor",
          "type": "address"
        }
      ],
      "name": "givePm",
      "outputs": [],
      "stateMutability": "nonpayable",
      "type": "function"
    },
    {
      "inputs": [
        {
          "internalType": "string",
          "name": "proposal",
          "type": "string"
        },
        {
          "internalType": "uint256",
          "name": "amount",
          "type": "uint256"
        }
      ],
      "name": "makeProposal",
      "outputs": [],
      "stateMutability": "nonpayable",
      "type": "function"
    },
    {
      "inputs": [],
      "name": "reject",
      "outputs": [],
      "stateMutability": "nonpayable",
      "type": "function"
    },
    {
      "inputs": [],
      "name": "secondTransfer",
      "outputs": [],
      "stateMutability": "nonpayable",
      "type": "function"
    }
  ],
  "bytecode": "0x60806040523480156200001157600080fd5b50604051620011553803806200115583398181016040528101906200003791906200015f565b81600381905550600560009054906101000a900473ffffffffffffffffffffffffffffffffffffffff16905033600460016101000a81548173ffffffffffffffffffffffffffffffffffffffff021916908373ffffffffffffffffffffffffffffffffffffffff1602179055506000600460006101000a81548160ff0219169083151502179055506001600a6000600460019054906101000a900473ffffffffffffffffffffffffffffffffffffffff1673ffffffffffffffffffffffffffffffffffffffff1673ffffffffffffffffffffffffffffffffffffffff16815260200190815260200160002060000181905550505062000212565b6000815190506200014281620001de565b92915050565b6000815190506200015981620001f8565b92915050565b600080604083850312156200017357600080fd5b6000620001838582860162000148565b9250506020620001968582860162000131565b9150509250929050565b6000620001ad82620001b4565b9050919050565b600073ffffffffffffffffffffffffffffffffffffffff82169050919050565b6000819050919050565b620001e981620001a0565b8114620001f557600080fd5b50565b6200020381620001d4565b81146200020f57600080fd5b50565b610f3380620002226000396000f3fe608060405234801561001057600080fd5b50600436106100cf5760003560e01c8063b27335171161008c578063d24481ea11610066578063d24481ea146101a5578063e64fce86146101c3578063ebe57291146101e1578063f14faf6f146101fd576100cf565b8063b27335171461014a578063bacd3d8b14610168578063bffa235914610187576100cf565b80630240bd57146100d45780633429212a146100f25780633d7a6fd8146100fc5780634dc415de146101185780635d2f24b3146101225780638fae60a514610140575b600080fd5b6100dc610219565b6040516100e99190610c53565b60405180910390f35b6100fa610222565b005b61011660048036038101906101119190610ae9565b61027e565b005b6101206103d2565b005b61012a6104d2565b6040516101379190610c53565b60405180910390f35b6101486104dc565b005b6101526105dc565b60405161015f9190610c01565b60405180910390f35b610170610671565b60405161017e929190610c23565b60405180910390f35b61018f61070e565b60405161019c9190610c53565b60405180910390f35b6101ad610718565b6040516101ba9190610c01565b60405180910390f35b6101cb61089f565b6040516101d89190610be6565b60405180910390f35b6101fb60048036038101906101f69190610b12565b610940565b005b61021760048036038101906102129190610b66565b610962565b005b60008054905090565b6000600754905060011515600860009054906101000a900460ff1615151461024957600080fd5b806001600082825461025b9190610d41565b9250508190555080600260008282546102749190610ceb565b9250508190555050565b600460019054906101000a900473ffffffffffffffffffffffffffffffffffffffff1673ffffffffffffffffffffffffffffffffffffffff163373ffffffffffffffffffffffffffffffffffffffff16146102d857600080fd5b60001515600a60008373ffffffffffffffffffffffffffffffffffffffff1673ffffffffffffffffffffffffffffffffffffffff16815260200190815260200160002060010160009054906101000a900460ff1615151461033857600080fd5b6000600a60008373ffffffffffffffffffffffffffffffffffffffff1673ffffffffffffffffffffffffffffffffffffffff168152602001908152602001600020600001541461038757600080fd5b6001600a60008373ffffffffffffffffffffffffffffffffffffffff1673ffffffffffffffffffffffffffffffffffffffff1681526020019081526020016000206000018190555050565b6000600a60003373ffffffffffffffffffffffffffffffffffffffff1673ffffffffffffffffffffffffffffffffffffffff16815260200190815260200160002090508060010160009054906101000a900460ff161561043157600080fd5b60018160010160006101000a81548160ff02191690831515021790555060018160010160016101000a81548160ff021916908360ff160217905550806000015460096001815481106104ac577f4e487b7100000000000000000000000000000000000000000000000000000000600052603260045260246000fd5b9060005260206000200160000160008282546104c89190610ceb565b9250508190555050565b6000600254905090565b6000600a60003373ffffffffffffffffffffffffffffffffffffffff1673ffffffffffffffffffffffffffffffffffffffff16815260200190815260200160002090508060010160009054906101000a900460ff161561053b57600080fd5b60018160010160006101000a81548160ff02191690831515021790555060008160010160016101000a81548160ff021916908360ff160217905550806000015460096000815481106105b6577f4e487b7100000000000000000000000000000000000000000000000000000000600052603260045260246000fd5b9060005260206000200160000160008282546105d29190610ceb565b9250508190555050565b606060011515600460009054906101000a900460ff161515146105fe57600080fd5b600080549050806000808282546106159190610d41565b92505081905550806001600082825461062e9190610ceb565b925050819055506040518060400160405280601081526020017f7472616e7366657220737563636573730000000000000000000000000000000081525091505090565b60606000600660075481805461068690610dff565b80601f01602080910402602001604051908101604052809291908181526020018280546106b290610dff565b80156106ff5780601f106106d4576101008083540402835291602001916106ff565b820191906000526020600020905b8154815290600101906020018083116106e257829003601f168201915b50505050509150915091509091565b6000600154905090565b6060600460019054906101000a900473ffffffffffffffffffffffffffffffffffffffff1673ffffffffffffffffffffffffffffffffffffffff163373ffffffffffffffffffffffffffffffffffffffff161461077457600080fd5b60096001815481106107af577f4e487b7100000000000000000000000000000000000000000000000000000000600052603260045260246000fd5b906000526020600020016000015460096000815481106107f8577f4e487b7100000000000000000000000000000000000000000000000000000000600052603260045260246000fd5b906000526020600020016000015410610863576001600860006101000a81548160ff0219169083151502179055506040518060400160405280600481526020017f7061737300000000000000000000000000000000000000000000000000000000815250905061089c565b6040518060400160405280600881526020017f6e6f74207061737300000000000000000000000000000000000000000000000081525090505b90565b6000600460019054906101000a900473ffffffffffffffffffffffffffffffffffffffff1673ffffffffffffffffffffffffffffffffffffffff163373ffffffffffffffffffffffffffffffffffffffff16146108fb57600080fd5b60035460005410610938576001600460006101000a81548160ff021916908315150217905550600460009054906101000a900460ff16905061093d565b600090505b90565b81600690805190602001906109569291906109b4565b50806007819055505050565b6003546000541061097257600080fd5b806000808282546109839190610ceb565b92505081905550600354600054106109b1576001600460006101000a81548160ff0219169083151502179055505b50565b8280546109c090610dff565b90600052602060002090601f0160209004810192826109e25760008555610a29565b82601f106109fb57805160ff1916838001178555610a29565b82800160010185558215610a29579182015b82811115610a28578251825591602001919060010190610a0d565b5b509050610a369190610a3a565b5090565b5b80821115610a53576000816000905550600101610a3b565b5090565b6000610a6a610a6584610c9f565b610c6e565b905082815260208101848484011115610a8257600080fd5b610a8d848285610dbd565b509392505050565b600081359050610aa481610ecf565b92915050565b600082601f830112610abb57600080fd5b8135610acb848260208601610a57565b91505092915050565b600081359050610ae381610ee6565b92915050565b600060208284031215610afb57600080fd5b6000610b0984828501610a95565b91505092915050565b60008060408385031215610b2557600080fd5b600083013567ffffffffffffffff811115610b3f57600080fd5b610b4b85828601610aaa565b9250506020610b5c85828601610ad4565b9150509250929050565b600060208284031215610b7857600080fd5b6000610b8684828501610ad4565b91505092915050565b610b9881610d87565b82525050565b6000610ba982610ccf565b610bb38185610cda565b9350610bc3818560208601610dcc565b610bcc81610ebe565b840191505092915050565b610be081610db3565b82525050565b6000602082019050610bfb6000830184610b8f565b92915050565b60006020820190508181036000830152610c1b8184610b9e565b905092915050565b60006040820190508181036000830152610c3d8185610b9e565b9050610c4c6020830184610bd7565b9392505050565b6000602082019050610c686000830184610bd7565b92915050565b6000604051905081810181811067ffffffffffffffff82111715610c9557610c94610e8f565b5b8060405250919050565b600067ffffffffffffffff821115610cba57610cb9610e8f565b5b601f19601f8301169050602081019050919050565b600081519050919050565b600082825260208201905092915050565b6000610cf682610db3565b9150610d0183610db3565b9250827fffffffffffffffffffffffffffffffffffffffffffffffffffffffffffffffff03821115610d3657610d35610e31565b5b828201905092915050565b6000610d4c82610db3565b9150610d5783610db3565b925082821015610d6a57610d69610e31565b5b828203905092915050565b6000610d8082610d93565b9050919050565b60008115159050919050565b600073ffffffffffffffffffffffffffffffffffffffff82169050919050565b6000819050919050565b82818337600083830152505050565b60005b83811015610dea578082015181840152602081019050610dcf565b83811115610df9576000848401525b50505050565b60006002820490506001821680610e1757607f821691505b60208210811415610e2b57610e2a610e60565b5b50919050565b7f4e487b7100000000000000000000000000000000000000000000000000000000600052601160045260246000fd5b7f4e487b7100000000000000000000000000000000000000000000000000000000600052602260045260246000fd5b7f4e487b7100000000000000000000000000000000000000000000000000000000600052604160045260246000fd5b6000601f19601f8301169050919050565b610ed881610d75565b8114610ee357600080fd5b50565b610eef81610db3565b8114610efa57600080fd5b5056fea26469706673582212204b2e349bc9da3d8bb40eedff7b9cc62210bc477b71b3f595a1ed755185dfb46964736f6c63430008000033",
  "linkReferences": {},
  "deployedLinkReferences": {}
}